:100000000C9435010C9466010C9466010C94660105
:100010000C9466010C9466010C9466010C946601C4
:100020000C9466010C9466010C9466010C946601B4
:100030000C9466010C9466010C9466010C946601A4
:100040000C9466010C9466010C9466010C94660194
:100050000C9466010C9466010C9466010C94AE0439
:100060000C9466010C9478040C944E040C94660174
:100070000C9466010C9466010C9466010C94660164
:100080000C9466010C9466010C9466010C94660154
:100090000C9466010C9466010C9466010C94660144
:1000A0000C9466010C9466010C9466010C94660134
:1000B0000C9466010C9466010C9466010C94660124
:1000C0000C9466010C9466010C9466010C94660114
:1000D0000C9466010C9466010C9466010C94660104
:1000E0000C9466010C9414020C94F9020C94F50221
:1000F0000C94BA010C94FD020C94D6020C9461028B
:100100000C94D0020C94ED060C940B030C94CE01CD
:100110000C94DC010C9407030C94EB020C94110377
:100120000C94EF020C94E5020C9410030C94E20280
:100130000C9403030C94DA020C9415030C94AB0199
:100140000C947E010C94DE020000200023002600A7
:1001500029002C002F0032000001000003010601DD
:10016000090100000A0B02090C0D0E080703040127
:10017000000000000000000000000000000000007F
:10018000000000000000000000000000000012114C
:10019000100000000000000000000000000000004F
:1001A00000000000000000000000220025002800E0
:1001B0002B002E003100340002010000050108016F
:1001C0000B0100002100240027002A002D00300030
:1001D000330001010000040107010A0105050505BE
:1001E000070508080808020202020A0A08080404AF
:1001F00004040101010101010101030303030303DD
:100200000303040707070C0C0C0C0C0C0C0C02026B
:10021000020206060606060606060B0B0B0B0B0B68
:100220000B0B0102102020080810204010204080F5
:1002300002010201080402010102040810204080AA
:100240008040201008040201800402018040201038
:100250000804020108040201010204081020408081
:100260000102040810204080ED0611241FBECFEFCC
:10027000D1E2DEBFCDBF00E00CBF12E0A0E0B2E0F3
:10028000E6E5F0E100E00BBF02C007900D92AC354F
:10029000B107D9F723E0ACE5B2E001C01D92A2316D
:1002A000B207E1F711E0C5E3D1E000E006C0219715
:1002B0000109802FFE010E942108C433D10780E08C
:1002C0000807A9F70E94F8040C9429080C94000070
:1002D00080917B00877F80937B0085E480937C0006
:1002E00080917A00806480937A0080917A0086FD04
:1002F000FCCF80917800909179000895AF92BF92E1
:10030000CF92DF92EF92FF920F931F93CF93DF93E1
:100310006C017B018B01040F151FEB015E01AE1810
:10032000BF08C017D10759F06991D601ED91FC9132
:100330000190F081E02DC6011995892B79F7C5014F
:10034000DF91CF911F910F91FF90EF90DF90CF90B1
:10035000BF90AF900895FC01538D448D252F30E060
:10036000842F90E0821B930B541710F0CF960895C2
:1003700001970895FC01918D828D981761F0A28DEF
:10038000AE0FBF2FB11D5D968C91928D9F5F9F73B5
:10039000928F90E008958FEF9FEF0895FC01918D6B
:1003A000828D981731F0828DE80FF11D858D90E0D8
:1003B00008958FEF9FEF0895FC01918D228D892F75
:1003C00090E0805C9F4F821B91098F73992708955D
:1003D00085E792E00E94DC0121E0892B09F420E00E
:1003E000822F0895FC01A48DA80FB92FB11DA35A27
:1003F000BF4F2C91848D90E001968F739927848F45
:10040000A689B7892C93A089B1898C918370806467
:100410008C93938D848D981306C00288F389E02D08
:1004200080818F7D80830895EF92FF920F931F93B9
:10043000CF93DF93EC0181E0888F9B8D8C8D981397
:100440001AC0E889F989808185FF15C09FB7F894A3
:10045000EE89FF896083E889F989808183708064EF
:1004600080839FBF81E090E0DF91CF911F910F913A
:10047000FF90EF900895F62E0B8D10E00F5F1F4F49
:100480000F731127E02E8C8D8E110CC00FB607FC58
:10049000FACFE889F989808185FFF5CFCE010E94E6
:1004A000F201F1CFEB8DEC0FFD2FF11DE35AFF4F61
:1004B000F0829FB7F8940B8FEA89FB898081806274
:1004C000CFCFCF93DF93EC01888D8823B9F0AA8931
:1004D000BB89E889F9898C9185FD03C0808186FDFF
:1004E0000DC00FB607FCF7CF8C9185FFF2CF80814E
:1004F00085FFEDCFCE010E94F201E9CFDF91CF91D0
:10050000089580E090E0892B29F00E94E801811194
:100510000E94000080E090E0892B49F080E090E0AC
:10052000892B29F00E94000081110E94000080E0C8
:1005300090E0892B49F080E090E0892B29F00E941F
:10054000000081110E94000080E090E0892B49F0BA
:1005500080E090E0892B29F00E94000081110C942A
:10056000000008958150823108F05AC0E82FF0E071
:100570008827E254FD4F8F4F0C942108DE02E202DF
:10058000D002D602DA021003E502EB02EF02F50216
:10059000F902FD020303070310030B031103150304
:1005A000809180008F7780938000089580918000F3
:1005B0008F7DF9CF80918000877FF5CF84B58F77CD
:1005C00084BD089584B58F7DFBCF8091B0008F7777
:1005D0008093B00008958091B0008F7DF9CF809115
:1005E00090008F77809390000895809190008F7D88
:1005F000F9CF80919000877FF5CF8091A0008F7711
:100600008093A00008958091A0008F7DF9CF809104
:10061000A000877FF5CF809120018F778093200104
:100620000895809120018F7DF9CF80912001877FEF
:10063000F5CFCF93DF93282F30E0F901EE59FE4F2D
:100640008491F901EE5DFD4FD491F901E452FE4F22
:10065000C491CC23A1F081110E94B202EC2FF0E0F2
:10066000EE0FFF1FE85BFE4FA591B491EC91ED23D7
:1006700081E090E009F480E0DF91CF91089580E07F
:1006800090E0FACF1F93CF93DF93282F30E0F9014A
:10069000EE59FE4F8491F901EE5DFD4FD491F901C1
:1006A000E452FE4FC491CC23A9F0162F81110E9471
:1006B000B202EC2FF0E0EE0FFF1FE855FE4FA591C0
:1006C000B4918FB7F894EC91111108C0D095DE2346
:1006D000DC938FBFDF91CF911F910895DE2BF8CF70
:1006E0003FB7F8948091610290916202A0916302F9
:1006F000B091640226B5A89B05C02F3F19F0019662
:10070000A11DB11D3FBFBA2FA92F982F8827BC016B
:10071000CD01620F711D811D911D42E0660F771F93
:10072000881F991F4A95D1F708958F929F92AF9293
:10073000BF92CF92DF92EF92FF924B015C010E9439
:1007400070036B017C010E9470036C197D098E0996
:100750009F09683E734081059105A8F321E0821A44
:100760009108A108B10888EEC80E83E0D81EE11CEC
:10077000F11C81149104A104B10429F7FF90EF90BA
:10078000DF90CF90BF90AF909F908F900895CF92C1
:10079000DF92FF920F931F93CF93DF936C01CC0CEA
:1007A000DD1C10E000E0CEE1D2E0F88022968F2D33
:1007B0000E94190361E0892B09F060E08F2D0E94EF
:1007C000420382E0CE32D80781F76AEF70E080E022
:1007D00090E00E9495030F5F1F4FC016D10619F7D6
:1007E000DF91CF911F910F91FF90DF90CF900895EF
:1007F000CF93DF93FC0101900020E9F73197AF011F
:10080000481B590BBC0185E792E00E947E01EC0178
:1008100042E050E06EE372E085E792E00E947E01E4
:100820008C0F9D1FDF91CF910895CF92DF92EF92B1
:10083000FF92CF93DF930E946801BC01990F880B50
:10084000990B611571058105910511F00E94B5079D
:10085000C5E6D2E082E0C82ED12CE12CF12C0E941A
:100860006607A70196010E94BE076130710589F4F1
:1008700079836883229682E0C537D80781F781E4BF
:1008800092E0DF91CF91FF90EF90DF90CF900C94AA
:10089000F803672B79F719821882ECCF1F920F9219
:1008A0000FB60F9211240BB60F922F933F934F93D5
:1008B0005F936F937F938F939F93AF93BF93EF93C8
:1008C000FF9385E792E00E94F201FF91EF91BF91C3
:1008D000AF919F918F917F916F915F914F913F91D8
:1008E0002F910F900BBE0F900FBE0F901F90189579
:1008F0001F920F920FB60F9211240BB60F922F93E7
:100900008F939F93EF93FF93E0918502F09186027E
:100910008081E0918B02F0918C0282FD1DC090815C
:1009200080918E028F5F8F7320918F02821741F02A
:10093000E0918E02F0E0EB58FD4F958F80938E0290
:10094000FF91EF919F918F912F910F900BBE0F9080
:100950000FBE0F901F9018958081F2CF1F920F92BB
:100960000FB60F9211242F933F938F939F93AF93C2
:10097000BF9380915D0290915E02A0915F02B09161
:10098000600230915C0223E0230F2D3758F5019669
:10099000A11DB11D20935C0280935D0290935E02C5
:1009A000A0935F02B0936002809161029091620215
:1009B000A0916302B09164020196A11DB11D8093C4
:1009C000610290936202A0936302B0936402BF91AC
:1009D000AF919F918F913F912F910F900FBE0F90EC
:1009E0001F90189526E8230F0296A11DB11DD2CFA6
:1009F000789484B5826084BD84B5816084BD85B5FA
:100A0000826085BD85B5816085BD80916E00816005
:100A100080936E00109281008091810082608093AB
:100A200081008091810081608093810080918000AD
:100A30008160809380008091B10084608093B100D8
:100A40008091B00081608093B000809191008260BD
:100A500080939100809191008160809391008091BA
:100A600090008160809390008091A10082608093CB
:100A7000A1008091A10081608093A1008091A000DD
:100A800081608093A0008091210182608093210188
:100A900080912101816080932101809120018160FA
:100AA0008093200180917A00846080937A00809105
:100AB0007A00826080937A0080917A0081608093CE
:100AC0007A0080917A00806880937A001092C10049
:100AD000E0918502F091860282E08083E0918102BC
:100AE000F09182021082E0918302F09184028FECF7
:100AF000808310928D02E0918902F0918A0286E053
:100B00008083E0918702F0918802808180618083F8
:100B1000E0918702F0918802808188608083E09173
:100B20008702F0918802808180688083E09187024B
:100B3000F091880280818F7D80832EE332E0AEE1E8
:100B4000B2E0CEE2D2E0899199919927FC01EE5D65
:100B5000FD4F449184529E4FFC0184918823C9F03B
:100B600090E0880F991FFC01EE53FE4F6591749140
:100B7000FC01E855FE4F059114919FB7F894FB01D5
:100B80008081409584238083F80180818423808341
:100B90009FBF8D919D919927FC01EE5DFD4F649162
:100BA00084529E4FFC0184918823A1F090E0880F2D
:100BB000991FFC01EE53FE4F45915491FC01E855FD
:100BC000FE4F859194918FB7F894FA019081962BFE
:100BD00090838FBF2C173D0709F0B5CF6AE070E016
:100BE00080E090E00E9495030E9415046EE1C62EFD
:100BF00062E0D62E75E6A72E72E0B72E0EE212E066
:100C0000F12CE12CF80180810E5F1F4F0E94190327
:100C1000F501419151915F01F6012081F2E0CF0E83
:100C2000D11C8417950709F0BBC061E0822F0E9498
:100C300042033FEFE31AF30AC017D10719F788E020
:100C4000E816F10499F685E090E00E94C70368EC8D
:100C500070E080E090E00E9495030E94150480E51A
:100C600092E00E94F8030E946801BC01990F880B72
:100C7000990B611571058105910511F00E94B50769
:100C80000E94660728E030E040E050E00E94BE0786
:100C90006A5E7D4FFB01C08086E1882E82E0982E3F
:100CA0009EE1E92E92E0F92E25E6A22E22E0B22E58
:100CB000CEE2D2E0D12C888122960E941903F50160
:100CC000419151915F01F7012081F2E0EF0EF11C9B
:100CD000F40171904F018417950709F066C061E037
:100CE000822F0E944203C71411F0DD24D3940C1705
:100CF0001D0709F764E670E080E090E00E9495032C
:100D0000D110CACF85E090E00E94C70368EC70E084
:100D100080E090E00E9495030E9415043EE1E32EDE
:100D200032E0F32E45E6A42E42E0B42E5EE2C52E5C
:100D300052E0D52ED0E0C0E010E000E0F601808166
:100D4000F2E0CF0ED11C0E941903F501419151919F
:100D50005F01F7012081F2E0EF0EF11C8417950787
:100D6000B9F561E0822F0E944203F801EA5EFD4F6F
:100D70008081873659F104F5823631F10F5F1F4FBC
:100D800008301105D9F664E670E080E090E00E943A
:100D90009503659719F682E390E00E94C703FBCFA5
:100DA00060E0822F0E94420347CF60E0822F0E94C2
:100DB0004203C7109CCF99CF823721F08937F1F6D3
:100DC0002596DCCF2196DACF2A96D8CF2696D6CF95
:100DD00060E0822F0E944203D1CFE5E7F2E0138268
:100DE000128288EE93E0A0E0B0E084839583A6832E
:100DF000B78388E092E09183808385EC90E09587CB
:100E0000848784EC90E09787868780EC90E0918BD4
:100E1000808B81EC90E0938B828B82EC90E0958BC1
:100E2000848B86EC90E0978B868B118E128E138EBE
:100E3000148E08958F929F92AF92BF92CF92DF92BD
:100E4000EF92FF92CF93DF93EC01688179818A81E1
:100E50009B81611571058105910521F464E279EDAD
:100E60008BE597E02DE133EF41E050E00E94BE07B3
:100E700049015A019B01AC01A7EAB1E40E94DD07D8
:100E80006B017C01ACEEB4EFA50194010E94EB076D
:100E9000C60ED71EE81EF91EF7FE06C081E0C81A6E
:100EA000D108E10880E8F80AC882D982EA82FB8288
:100EB000C701B6019F77DF91CF91FF90EF90DF9050
:100EC000CF90BF90AF909F908F9008958F929F92F8
:100ED000AF92BF92CF92DF92EF92FF9260910002A9
:100EE00070910102809102029091030261157105D7
:100EF0008105910521F464E279ED8BE597E02DE120
:100F000033EF41E050E00E94BE0749015A019B01C6
:100F1000AC01A7EAB1E40E94DD076B017C01ACEEF5
:100F2000B4EFA50194010E94EB07C60ED71EE81E80
:100F3000F91EF7FE06C081E0C81AD108E10880E872
:100F4000F80AC0920002D0920102E0920202F092EE
:100F50000302C701B6019F77FF90EF90DF90CF901B
:100F6000BF90AF909F908F90089560930002709310
:100F7000010280930202909303020895052E97FBCD
:100F80001EF400940E94D50757FD07D00E94F00779
:100F900007FC03D04EF40C94D5075095409530953E
:100FA00021953F4F4F4F5F4F0895909580957095D5
:100FB00061957F4F8F4F9F4F08950E941208A59F04
:100FC000900DB49F900DA49F800D911D1124089544
:100FD000B7FF0C94DD070E94DD07821B930B089579
:100FE000A1E21A2EAA1BBB1BFD010DC0AA1FBB1F2D
:100FF000EE1FFF1FA217B307E407F50720F0A21B9F
:10100000B30BE40BF50B661F771F881F991F1A940B
:1010100069F760957095809590959B01AC01BD0135
:10102000CF010895A29FB001B39FC001A39F700D8F
:10103000811D1124911DB29F700D811D1124911DE0
:101040000895EE0FFF1F881F8BBF0790F691E02DCC
:061050001994F894FFCF93
:10105600010000000000000014027E01AB016102E5
:10106600DC01BA01CE016272677962727967190092
:101076001D002100250029002D0031003500160035
:101086001A001E00220026002A002E0032000D0A39
:1010960000496E69746961746564206461746100F5
:0C10A600537461727465645F534D000068
:00000001FF
