:100000000C9462000C948A000C948A000C948A0070
:100010000C948A000C948A000C948A000C948A0038
:100020000C948A000C948A000C948A000C948A0028
:100030000C948A000C948A000C948A000C948A0018
:100040000C9434030C948A000C9402030C94DC028C
:100050000C948A000C948A000C948A000C948A00F8
:100060000C948A000C948A000000000023002600F3
:10007000290000000008000201000003040700003E
:1000800000000000000000000000250028002B00F8
:1000900000000000240027002A00040404040404D3
:1000A0000404020202020202030303030303010227
:1000B00004081020408001020408102001020408F6
:1000C0001020CF0511241FBECFEFD8E0DEBFCDBF7B
:1000D00011E0A0E0B1E0ECE4FCE002C005900D927C
:1000E000A635B107D9F722E0A6E5B1E001C01D921F
:1000F000A030B207E1F710E0C2E6D0E004C02197DB
:10010000FE010E941E06C136D107C9F70E947E0378
:100110000C9424060C940000AF92BF92CF92DF9211
:10012000EF92FF920F931F93CF93DF936C017B01AC
:100130008B01040F151FEB015E01AE18BF08C0173D
:10014000D10759F06991D601ED91FC910190F081B0
:10015000E02DC6010995892B79F7C501DF91CF9173
:100160001F910F91FF90EF90DF90CF90BF90AF90D5
:100170000895FC01538D448D252F30E0842F90E0AD
:10018000821B930B541710F0CF9608950197089592
:10019000FC01918D828D981761F0A28DAE0FBF2F5B
:1001A000B11D5D968C91928D9F5F9F73928F90E0B1
:1001B00008958FEF9FEF0895FC01918D828D981720
:1001C00031F0828DE80FF11D858D90E008958FEF5D
:1001D0009FEF0895FC01918D228D892F90E0805C26
:1001E0009F4F821B91098F739927089583E691E0B1
:1001F0000E94EA0021E0892B09F420E0822F089573
:1002000080E090E0892B29F00E94F60081110C9487
:1002100000000895FC01A48DA80FB92FB11DA35AA9
:10022000BF4F2C91848D90E001968F739927848F16
:10023000A689B7892C93A089B1898C918370806439
:100240008C93938D848D981306C00288F389E02DDA
:1002500080818F7D80830895EF92FF920F931F938B
:10026000CF93DF93EC0181E0888F9B8D8C8D981369
:100270001AC0E889F989808185FF15C09FB7F89475
:10028000EE89FF896083E889F989808183708064C1
:1002900080839FBF81E090E0DF91CF911F910F910C
:1002A000FF90EF900895F62E0B8D10E00F5F1F4F1B
:1002B0000F731127E02E8C8D8E110CC00FB607FC2A
:1002C000FACFE889F989808185FFF5CFCE010E94B8
:1002D0000A01F1CFEB8DEC0FFD2FF11DE35AFF4F1B
:1002E000F0829FB7F8940B8FEA89FB898081806246
:1002F000CFCFCF93DF93EC01888D8823B9F0AA8903
:10030000BB89E889F9898C9185FD03C0808186FDD0
:100310000DC00FB607FCF7CF8C9185FFF2CF80811F
:1003200085FFEDCFCE010E940A01E9CFDF91CF9189
:100330000895833081F028F4813099F08230A9F05B
:1003400008958730A9F08830C9F08430B1F48091E5
:1003500080008F7D03C0809180008F778093800024
:10036000089584B58F7784BD089584B58F7DFBCFC4
:100370008091B0008F778093B00008958091B00095
:100380008F7DF9CFCF93DF93282F30E0F901EE581E
:10039000FF4F8491F901E255FF4FD491F901E656E0
:1003A000FF4FC491CC23A1F081110E949901EC2F41
:1003B000F0E0EE0FFF1FE859FF4FA591B491EC91CB
:1003C000ED2381E090E009F480E0DF91CF91089582
:1003D00080E090E0FACF1F93CF93DF93282F30E097
:1003E000F901EE58FF4F8491F901E255FF4FD49186
:1003F000F901E656FF4FC491CC23A9F0162F8111C5
:100400000E949901EC2FF0E0EE0FFF1FEA57FF4F1B
:10041000A591B4918FB7F894EC91111108C0D095C3
:10042000DE23DC938FBFDF91CF911F910895DE2BE8
:10043000F8CF3FB7F89480915B0190915C01A09157
:100440005D01B0915E0126B5A89B05C02F3F19F054
:100450000196A11DB11D3FBFBA2FA92F982F882744
:10046000BC01CD01620F711D811D911D42E0660F1F
:10047000771F881F991F4A95D1F708952FB7F894D1
:1004800060915701709158018091590190915A01E2
:100490002FBF0895FC0101900020E9F73197AF01CB
:1004A000481B590BBC0183E691E00C948C008F92A1
:1004B0009F92AF92BF92CF92DF92EF92FF920F93F3
:1004C0001F93CF93DF93CDB7DEB7A1970FB6F89404
:1004D000DEBF0FBECDBF6C01990FEE08FF08F7FE1F
:1004E00047C06DE283E691E00E942C018C01222737
:1004F0003327A9012C193D094E095F0919A2CE0124
:1005000081967C019AE0892E912CA12CB12CCA01F4
:10051000B901A50194010E94FC05605DF701629399
:100520007F01211531054105510589F790E080E0F3
:10053000309719F0CF010E944A02080F191F80E37B
:1005400091E00E944A02800F911FA1960FB6F89485
:10055000DEBF0FBECDBFDF91CF911F910F91FF90F6
:10056000EF90DF90CF90BF90AF909F908F900895C5
:10057000A701960119A28E010F5D1F4F8AE0C82EB8
:10058000D12CE12CF12CCA01B901A70196010E94DE
:10059000FC05605DF80162938F012115310541056D
:1005A000510589F7309729F0CF010E944A028C014A
:1005B000C6CF10E000E0C3CF1F920F920FB60F928C
:1005C00011242F933F934F935F936F937F938F9358
:1005D0009F93AF93BF93EF93FF9383E691E00E94C5
:1005E0000A01FF91EF91BF91AF919F918F917F9100
:1005F0006F915F914F913F912F910F900FBE0F9090
:100600001F9018951F920F920FB60F9211242F93DF
:100610008F939F93EF93FF93E0917301F091740197
:100620008081E0917901F0917A0182FD1BC0908177
:1006300080917C018F5F8F7320917D01821741F043
:10064000E0917C01F0E0ED59FE4F958F80937C01A5
:10065000FF91EF919F918F912F910F900FBE0F906F
:100660001F9018958081F4CF1F920F920FB60F92B2
:1006700011242F933F938F939F93AF93BF938091B8
:10068000570190915801A0915901B0915A013091B0
:10069000560123E0230F2D3758F50196A11DB11DFA
:1006A000209356018093570190935801A0935901CC
:1006B000B0935A0180915B0190915C01A0915D0122
:1006C000B0915E010196A11DB11D80935B019093D5
:1006D0005C01A0935D01B0935E01BF91AF919F91CA
:1006E0008F913F912F910F900FBE0F901F901895F3
:1006F00026E8230F0296A11DB11DD2CFCF93DF9321
:1007000000D01F92CDB7DEB7789484B5826084BDE7
:1007100084B5816084BD85B5826085BD85B5816005
:1007200085BD80916E00816080936E001092810083
:10073000809181008260809381008091810081603E
:1007400080938100809180008160809380008091FF
:10075000B10084608093B1008091B000816080938B
:10076000B00080917A00846080937A0080917A0052
:10077000826080937A0080917A00816080937A0011
:1007800080917A00806880937A001092C100E09195
:100790007301F091740182E08083E0916F01F09128
:1007A00070011082E0917101F09172018FEC8083F1
:1007B00010927B01E0917701F091780186E08083CF
:1007C000E0917501F0917601808180618083E091F4
:1007D0007501F0917601808188608083E0917501D8
:1007E000F0917601808180688083E0917501F091BD
:1007F000760180818F7D8083E4E1EE2EE1E0FE2EA4
:1008000022E231E08701D8018D919D918D019927D8
:10081000FC01E255FF4F449186569F4FFC018491A5
:10082000882399F090E0880F991FFC01E057FF4F53
:10083000A591B491FC01EA57FF4F859194918FB730
:10084000F894EC914E2B4C938FBF20173107D9F6BB
:10085000E7EBF0E02491E3EAF0E084918823D9F01B
:1008600090E0880F991FFC01E057FF4FA591B491CC
:10087000FC01EA57FF4F459154915B834A839FB730
:10088000F8943C91822F809583238C93DA01EC912C
:100890002E2B2C939FBF0E943E024B015C01809146
:1008A000000190910101019609F05EC0E1E0F0E0E5
:1008B000FB83EA838091000190910101019679F711
:1008C00054E1C52E51E0D52ED6018C91B2E0CB0E6D
:1008D000D11C60E00E94EB01C016D106A9F7EA81A5
:1008E000FB81319739F561E088E00E94EB0161E01E
:1008F00082E00E94EB0161E087E00E94EB0161E091
:1009000083E00E94EB010E943E02681979098A097E
:100910009B096D3D754081059105C8F489E00E94F1
:10092000C201892B81F78A819B8190930101809379
:100930000001E9CF4A815B8161E085E042305105E9
:1009400001F786E00E94EB0161E084E0DACF0E94CB
:100950003E024B015C01AA81BB811196BB83AA8335
:10096000149709F0A7CF9BCF83E391E00E944A023E
:1009700080910001909101010E945702F70180814E
:10098000F2E0EF0EF11C60E00E94EB01E016F106D0
:10099000A9F7809100019091010182309105F1F158
:1009A0008330910509F43FC0019721F440E2242EE1
:1009B00043E0342E0E943E026B017C0110E01B825A
:1009C0001A824101032C000CAA08BB08EA81FB81B2
:1009D000EE0FFF1FEE5DFE4F008161E0802F0E9451
:1009E000EB010E943E022B013C0141E049830E9441
:1009F0003E02641975098609970986169706A806A6
:100A0000B90608F48DC089E00E94C201892B79F7EC
:100A100060E0802F0E94EB011982E9CF36E2232E9D
:100A200032E0332EC7CF28EC222E312CC3CF2981C0
:100A30002111CCCF89E491E00E944A028A819B81F6
:100A40000E945702809161019091620101969093FA
:100A50006201809361012A813B8123503109233057
:100A60003105B0F420915F0130916001A9014F5F21
:100A70005F4F5093600140935F014A815B81443036
:100A8000510531F42E5F3F4F3093600120935F0199
:100A9000039709F077C080915F01909160010497FE
:100AA0000CF467C082E291E09B838A83AA81BB81B8
:100AB0001C911296BB83AA83812F0E94C20161E020
:100AC000892B09F060E0812F0E94EB010E9419023E
:100AD0004B015C0186E9C82ED12CE12CF12C0E943F
:100AE0001902681979098A099B09683E73408105D2
:100AF0009105A8F3B1E0CB1AD108E108F108E8EEBE
:100B00008E0EE3E09E1EA11CB11CC114D104E104B1
:100B1000F10429F74A815B814053514039F6C2CF35
:100B200060E0802F0E94EB011123E9F08A819B8114
:100B300001979B838A83EA81FB81E630F10511F0FE
:100B4000EF2B11F481E018270E943E026C197D09F9
:100B50008E099F09613177428105910508F467CFBD
:100B60001B821A8267CFAA81BB811196BB83AA839D
:100B7000E2CF109262011092610110926001109216
:100B80005F0107CFA0E0B0E0AB2B09F402CF0E94D9
:100B9000F600882309F4FDCE0E940000FACEE3E6B9
:100BA000F1E01382128288EE93E0A0E0B0E084834B
:100BB0009583A683B78386E091E09183808385EC5B
:100BC00090E09587848784EC90E09787868780EC17
:100BD00090E0918B808B81EC90E0938B828B82EC08
:100BE00090E0958B848B86EC90E0978B868B118EB2
:100BF000128E138E148E0895A1E21A2EAA1BBB1B0F
:100C0000FD010DC0AA1FBB1FEE1FFF1FA217B307D8
:100C1000E407F50720F0A21BB30BE40BF50B661FEE
:100C2000771F881F991F1A9469F7609570958095B2
:100C300090959B01AC01BD01CF010895EE0FFF1F00
:0C0C40000590F491E02D0994F894FFCF8A
:100C4C00FFFF000000002C018C00B9007901EA00C4
:100C5C00C800DC00080002000700030006000400C6
:100C6C000500080007000600050004000300020050
:100C7C000D0A00446966666963756C747920697342
:100C8C002028312D33293A200053746F707065641D
:060C9C00206174203A0003
:00000001FF
