:100000000C9424010C9445010C9445010C94450179
:100010000C9445010C9445010C9445010C94450148
:100020000C9445010C9445010C9445010C94450138
:100030000C9445010C9445010C9445010C94450128
:100040000C9445010C9445010C9445010C94450118
:100050000C9445010C9445010C9445010C940D023F
:100060000C9445010C9445010C9445010C944501F8
:100070000C9445010C9445010C9445010C944501E8
:100080000C9445010C9445010C9445010C944501D8
:100090000C9445010C9445010C9445010C944501C8
:1000A0000C9445010C9445010C9445010C944501B8
:1000B0000C9445010C9445010C9445010C944501A8
:1000C0000C9445010C9445010C9445010C94450198
:1000D0000C9445010C9445010C9445010C94450188
:1000E0000C9445010C94AA010C946F010C947301BB
:1000F0000C94A0010C9477010C949C010C94920137
:100100000C94A5010C946B010C94A6010C947A013B
:100110000C9465010C948A010C948E010C9480015E
:100120000C9484010C949801000021002400270005
:100130002A002D00300033000101000004010701F6
:100140000A0100002200250028002B002E003100AB
:10015000340002010000050108010B01000020002D
:100160002300260029002C002F003200000100008F
:10017000030106010901050505050705080808082A
:10018000020202020A0A080804040404010101012F
:10019000010101010303030303030303040707072A
:1001A0000C0C0C0C0C0C0C0C0202020206060606CF
:1001B000060606060B0B0B0B0B0B0B0B010210209C
:1001C000200808102040102040800201020108048D
:1001D0000201010204081020408080402010080421
:1001E000020180040201804020100804020108047A
:1001F00002010102040810204080010204081020BE
:10020000408000000A0B02090C0D0E0807030401D0
:1002100000000000000000000000000000000000DE
:1002200000000000000000000000000000001211AB
:1002300010000000000000000000000000000000AE
:10024000000000000000000011241FBECFEFD1E22B
:10025000DEBFCDBF00E00CBF12E0A0E0B2E0E6EFF1
:10026000F6E000E00BBF02C007900D92A032B1078C
:10027000D9F722E0A0E2B2E001C01D92A932B20794
:10028000E1F70E9457020C9479030C94000081500E
:10029000823108F05AC0E82FF0E08827ED5AFE4F6F
:1002A0008F4F0C9471037301770165016B016F012E
:1002B000A5017A01800184018A018E0192019801D1
:1002C0009C01A501A001A601AA01809180008F7761
:1002D000809380000895809180008F7DF9CF809178
:1002E0008000877FF5CF84B58F7784BD089584B56E
:1002F0008F7DFBCF8091B0008F778093B000089501
:100300008091B0008F7DF9CF809190008F7780939E
:1003100090000895809190008F7DF9CF809190009A
:10032000877FF5CF8091A0008F778093A0000895FC
:100330008091A0008F7DF9CF8091A000877FF5CFBD
:10034000809120018F778093200108958091200172
:100350008F7DF9CF80912001877FF5CF1F93CF93B9
:10036000DF93282F30E0F901EE5FFD4F8491F90112
:10037000E454FE4FD491F901EA58FE4FC491CC23C6
:10038000A9F0162F81110E944701EC2FF0E0EE0F2B
:10039000FF1FEE5BFE4FA591B4918FB7F894EC91DF
:1003A000111108C0D095DE23DC938FBFDF91CF9170
:1003B0001F910895DE2BF8CFCF93DF9390E0FC01DF
:1003C000E454FE4F24918A589E4FFC018491882367
:1003D000D1F090E0880F991FFC01E85DFE4FA591D8
:1003E000B491FC01EE5BFE4FC591D49161110EC03A
:1003F0009FB7F8948C91E22FE0958E238C932881FF
:10040000E223E8839FBFDF91CF9108958FB7F894DF
:10041000EC91E22BEC938FBFF6CF1F920F920FB6A9
:100420000F9211242F933F938F939F93AF93BF937A
:100430008091250290912602A0912702B091280276
:100440003091240223E0230F2D3758F50196A11D8A
:10045000B11D209324028093250290932602A0933D
:100460002702B09328028091200290912102A0914E
:100470002202B09123020196A11DB11D809320029A
:1004800090932102A0932202B0932302BF91AF91D7
:100490009F918F913F912F910F900FBE0F901F90C2
:1004A000189526E8230F0296A11DB11DD2CF78948E
:1004B00084B5826084BD84B5816084BD85B5826069
:1004C00085BD85B5816085BD80916E00816080931A
:1004D0006E00109281008091810082608093810083
:1004E0008091810081608093810080918000816093
:1004F000809380008091B10084608093B1008091EE
:10050000B00081608093B000809191008260809300
:100510009100809191008160809391008091900082
:100520008160809390008091A10082608093A100FF
:100530008091A10081608093A1008091A0008160E2
:100540008093A0008091210182608093210180919D
:10055000210181608093210180912001816080933D
:10056000200180917A00846080937A0080917A00E3
:10057000826080937A0080917A00816080937A0013
:1005800080917A00806880937A001092C10068E0C0
:10059000E62E62E0F62E70E1C72E72E0D72EC8E19B
:1005A000D2E08881229661E00E94DC01F601808120
:1005B000F2E0CF0ED11C60E00E94DC01F701108157
:1005C000F2E0EF0EF11C61E0812F0E94DC0161E09E
:1005D00081E0810F0E94DC0161E082E0810F0E94D6
:1005E000DC0161E083E0810F0E94DC0182E0C03227
:1005F000D807B9F666246A94762C50E0852E50E030
:10060000952EC0E0D2E038E0C32E32E0D32E08E1D0
:1006100012E0F80140800E5F1F4F61E0842D0E94C0
:10062000AE0120E1A22E22E0B22EF12CE12C798243
:100630006882F501219131915F013327F901EE5F65
:10064000FD4F8491F901E454FE4F5490F901EA58AA
:10065000FE4F3490332089F181110E944701E32D30
:10066000F0E0EE0FFF1FE45AFE4FA591B491EC911C
:100670005E2219F1F982E88260E0842D0E94AE01C9
:1006800028813981F6018081F2E0CF0ED11CF82E4D
:100690002F3F3207D9F08D5F61E0821B0E94AE01CF
:1006A0002296E2E000321E0709F0B3CF81149104D4
:1006B00009F4A7CF0E940000A4CFFFEFEF1AFF0AB2
:1006C00084E0E816F10409F0B2CFD6CF84E0E82E3A
:1006D000EF0C60E08F2D0E94AE01F394EF10F9CF84
:1006E000DFCFEE0FFF1F881F8BBF0790F691E02D25
:0606F0001994F894FFCFFD
:1006F600FFFFFFFFFFFFFFFF2A00260022001E006C
:100706001A001B001C001D00160017001800190017
:00000001FF
