:100000000C94DA000C9402010C9402010C9402018D
:100010000C9402010C9402010C9402010C94020154
:100020000C948A040C9402010C9402010C940201B9
:100030000C9402010C9402010C9402010C94020134
:100040000C9440040C9402010C940E040C94E803EC
:100050000C9402010C9402010C9402010C94020114
:100060000C9402010C94020100407A10F35A00A093
:10007000724E18090010A5D4E80000E87648170071
:1000800000E40B54020000CA9A3B000000E1F505B1
:10009000000080969800000040420F000000A086FB
:1000A00001000000102700000000E803000000002D
:1000B0006400000000000A000000000001000000D1
:1000C00000002C76D888DC674F0823DFC1DFAE59EB
:1000D000E1B1B796E5E3E453C63AE651997696E87E
:1000E000E6C28426EB898C9B62ED407C6FFCEFBC02
:1000F0009C9F40F2BAA56FA5F490055A2AF75C932D
:100100006B6CF9676DC11BFCE0E40D47FEF520E662
:10011000B500D0ED902E0300943577050080841E45
:10012000080000204E0A000000C80C333333330FA0
:10013000986E12831141EF8D2114893BE65516CF3D
:10014000FEE6DB18D1844B381BF77C1D901DA4BB49
:10015000E424203284725E228100C9F124ECA1E5FE
:100160003D270000000023002600290000000000B9
:10017000250028002B0004040404040404040202E3
:100180000202020203030303030301020408102016
:100190004080010204081020010204081020000021
:1001A0000008000201000003040700000000000036
:1001B00000005A0511241FBECFEFD8E0DEBFCDBF2F
:1001C00011E0A0E0B1E0E6EEFFE102C005900D9283
:1001D000A835B107D9F722E0A8E5B1E001C01D922A
:1001E000A83DB207E1F710E0CAEDD0E004C02197C6
:1001F000FE010E94F90DC93DD107C9F70E948B0588
:100200000C94F10F0C940000AF92BF92CF92DF924A
:10021000EF92FF920F931F93CF93DF936C017B01BB
:100220008B01040F151FEB015E01AE18BF08C0174C
:10023000D10759F06991D601ED91FC910190F081BF
:10024000E02DC6010995892B79F7C501DF91CF9182
:100250001F910F91FF90EF90DF90CF90BF90AF90E4
:100260000895FC01538D448D252F30E0842F90E0BC
:10027000821B930B541710F0CF96089501970895A1
:10028000FC01918D828D981761F0A28DAE0FBF2F6A
:10029000B11D5D968C91928D9F5F9F73928F90E0C0
:1002A00008958FEF9FEF0895FC01918D828D98172F
:1002B00031F0828DE80FF11D858D90E008958FEF6C
:1002C0009FEF0895FC01918D228D892F90E0805C35
:1002D0009F4F821B91098F739927089587E691E0BC
:1002E0000E94620121E0892B09F420E0822F089509
:1002F00080E090E0892B29F00E946E0181110C941E
:1003000000000895FC01A48DA80FB92FB11DA35AB8
:10031000BF4F2C91848D90E001968F739927848F25
:10032000A689B7892C93A089B1898C918370806448
:100330008C93938D848D981306C00288F389E02DE9
:1003400080818F7D80830895EF92FF920F931F939A
:10035000CF93DF93EC0181E0888F9B8D8C8D981378
:100360001AC0E889F989808185FF15C09FB7F89484
:10037000EE89FF896083E889F989808183708064D0
:1003800080839FBF81E090E0DF91CF911F910F911B
:10039000FF90EF900895F62E0B8D10E00F5F1F4F2A
:1003A0000F731127E02E8C8D8E110CC00FB607FC39
:1003B000FACFE889F989808185FFF5CFCE010E94C7
:1003C0008201F1CFEB8DEC0FFD2FF11DE35AFF4FB2
:1003D000F0829FB7F8940B8FEA89FB898081806255
:1003E000CFCFCF93DF93EC01888D8823B9F0AA8912
:1003F000BB89E889F9898C9185FD03C0808186FDE0
:100400000DC00FB607FCF7CF8C9185FFF2CF80812E
:1004100085FFEDCFCE010E948201E9CFDF91CF9120
:100420000895833081F028F4813099F08230A9F06A
:1004300008958730A9F08830C9F08430B1F48091F4
:1004400080008F7D03C0809180008F778093800033
:10045000089584B58F7784BD089584B58F7DFBCFD3
:100460008091B0008F778093B00008958091B000A4
:100470008F7DF9CF1F93CF93DF93282F30E0F901C1
:10048000E256FE4F8491F901E657FE4FD491F901EF
:10049000EA58FE4FC491CC23A9F0162F81110E9477
:1004A0001102EC2FF0E0EE0FFF1FE459FE4FA59173
:1004B000B4918FB7F894EC91111108C0D095DE2358
:1004C000DC938FBFDF91CF911F910895DE2BF8CF82
:1004D0008E3008F08E508770806480937C0080910D
:1004E0007A00806480937A0080917A0086FDFCCF48
:1004F000809178009091790008953FB7F8948091A9
:100500005D0190915E01A0915F01B091600126B5FF
:10051000A89B05C02F3F19F00196A11DB11D3FBF3B
:10052000BA2FA92F982F8827BC01CD01620F711D0A
:10053000811D911D42E0660F771F881F991F4A9504
:10054000D1F708958F929F92AF92BF92CF92DF9290
:10055000EF92FF924B015C010E947D026B017C01D6
:100560000E947D026C197D098E099F09683E7340C7
:1005700081059105A8F321E0821A9108A108B1082C
:1005800088EEC80E83E0D81EE11CF11C8114910492
:10059000A104B10429F7FF90EF90DF90CF90BF90B6
:1005A000AF909F908F9008950F931F93CF93DF93F9
:1005B000082F162FD42FC8E06D2F661F6627661FE1
:1005C000802F0E943A02DD0F61E0812F0E943A02E3
:1005D00060E0812F0E943A02C15071F7DF91CF9104
:1005E0001F910F91089542E050E060E271E087E6CC
:1005F00091E00C940401CF93DF93FC014481558179
:100600006081718187E691E00E940401EC010E9403
:10061000F3028C0F9D1FDF91CF910895CF93DF934D
:10062000EC0188819981009711F00E949B0E19823C
:1006300018821D821C821B821A82DF91CF9108953D
:10064000FC0180819181009711F00C949B0E08951C
:100650000F931F93CF93DF93EC01888199810097CB
:1006600059F02A813B812617370730F081E0DF916E
:10067000CF911F910F9108958B016F5F7F4F0E9463
:10068000240F009759F0998388831B830A832C8158
:100690003D81232B59F7FC011082E8CF80E0E7CFA2
:1006A000EF92FF920F931F93CF93DF936115710524
:1006B00041F480E0DF91CF911F910F91FF90EF9077
:1006C000089541155105B1F07B01EC010C811D81AC
:1006D000040F151FB8010E942803882351F32881B5
:1006E00039818C819D81B701820F931F0E94EA0F8F
:1006F0001D830C8381E0DECFCF93DF93EC01FB0100
:1007000044815581608171810E945003811103C031
:10071000CE010E940E03CE01DF91CF910895EF929A
:10072000FF920F931F93CF93DF93EC017B018A011C
:10073000BA010E94280381110BC0CE010E940E0352
:10074000CE01DF91CF911F910F91FF90EF9008950F
:100750001D830C83B701888199810E94EA0FF0CF35
:10076000EF92FF920F931F93CF93DF93CDB7DEB736
:1007700062970FB6F894DEBF0FBECDBF8C01CB01E0
:10078000F8011182108213821282158214824AE0CB
:100790009E012F5F3F4F7901B9010E94EB08F701DD
:1007A00001900020E9F73197AF014E195F09B701B9
:1007B000C8010E948F0362960FB6F894DEBF0FBE89
:1007C000CDBFDF91CF911F910F91FF90EF900895D2
:1007D0001F920F920FB60F9211242F933F934F93B6
:1007E0005F936F937F938F939F93AF93BF93EF9399
:1007F000FF9387E691E00E948201FF91EF91BF9104
:10080000AF919F918F917F916F915F914F913F91A8
:100810002F910F900FBE0F901F9018951F920F925F
:100820000FB60F9211242F938F939F93EF93FF9303
:10083000E0917701F09178018081E0917D01F09164
:100840007E0182FD1BC09081809180018F5F8F733C
:1008500020918101821741F0E0918001F0E0E95997
:10086000FE4F958F80938001FF91EF919F918F9123
:100870002F910F900FBE0F901F9018958081F4CF8D
:100880001F920F920FB60F9211242F933F938F93C5
:100890009F93AF93BF938091590190915A01A0917A
:1008A0005B01B0915C013091580123E0230F2D379B
:1008B00058F50196A11DB11D20935801809359014F
:1008C00090935A01A0935B01B0935C0180915D010C
:1008D00090915E01A0915F01B09160010196A11D10
:1008E000B11D80935D0190935E01A0935F01B09371
:1008F0006001BF91AF919F918F913F912F910F9088
:100900000FBE0F901F90189526E8230F0296A11D89
:10091000B11DD2CF1F920F920FB60F9211242F93B9
:100920003F934F935F936F937F938F939F93AF9377
:10093000BF93CF93DF93EF93FF932091050230E0B5
:10094000F901E256FE4F8491F901E657FE4FD4912A
:10095000F901EA58FE4FC491CC2379F081110E942D
:100960001102EC2FF0E0EE0FFF1FEE59FE4FA591A4
:10097000B491EC91ED2391E009F490E0209109020B
:1009800030910A022F3F320731F02F5F3F4F3093F3
:100990000A022093090280910402811137C091114B
:1009A00016C02091090230910A022536310558F00F
:1009B00010920B0230930D0220930C0281E0809381
:1009C00008028093040210920A0210920902809198
:1009D0000702882341F080910602911163C061E013
:1009E000811163C02D9AFF91EF91DF91CF91BF915B
:1009F000AF919F918F917F916F915F914F913F91B7
:100A00002F910F900FBE0F901F90189580910402A8
:100A10008130A1F49130D9F6E09108028E0F8093D5
:100A20000802F0E0EE0FFF1FE45FFD4F2091090286
:100A300030910A023183208382E0C3CF8091040287
:100A4000823039F5911119C0E091080281E0E43655
:100A500020F080930B0283E0B4CF8E0F80930802C6
:100A6000F0E0EE0FFF1FE45FFD4F2091090230918F
:100A70000A023183208381E0A4CF209109023091C2
:100A80000A022536310508F4A2CF83E080930402E0
:100A90009ECF80910402833009F099CF992309F405
:100AA00092CF95CF882321F060E00E943A029BCF3D
:100AB0002D9899CFE7E6F1E01382128288EE93E059
:100AC000A0E0B0E084839583A683B78382E191E0C0
:100AD0009183808385EC90E09587848784EC90E017
:100AE0009787868780EC90E0918B808B81EC90E0FB
:100AF000938B828B82EC90E0958B848B86EC90E0DC
:100B0000978B868B118E128E138E148EE4E0F2E09A
:100B1000118213820895CF93DF93CDB7DEB7AD97DF
:100B20000FB6F894DEBF0FBECDBF789484B5826057
:100B300084BD84B5816084BD85B5826085BD85B581
:100B4000816085BD80916E00816080936E001092FF
:100B5000810080918100826080938100809181007A
:100B6000816080938100809180008160809380000B
:100B70008091B10084608093B1008091B000816069
:100B80008093B00080917A00846080937A00809195
:100B90007A00826080937A0080917A0081608093ED
:100BA0007A0080917A00806880937A001092C10068
:100BB000E0917701F091780182E08083E091730108
:100BC000F09174011082E0917501F09176018FEC43
:100BD000808310927F01E0917B01F0917C0186E09F
:100BE0008083E0917901F0917A0180818061808336
:100BF000E0917901F0917A01808188608083E091B1
:100C00007901F0917A01808180688083E091790197
:100C1000F0917A0180818F7D808385E00E94680257
:100C2000BC01990F880B990B611571058105910520
:100C300011F00E94E20874E0C72E71E0D72E00E0A8
:100C400011E0E3E08E2E912CA12CB12C0E94930890
:100C5000A50194010E949D0CF80121918F01DB01F7
:100C6000A050BF4F8C91319780832C93C016D10632
:100C700069F760E0C62E61E0D62E10E000E00F5F5D
:100C80001F4FF60161916F0181E090E0623771F0D2
:100C900082E090E0673651F084E090E0623631F017
:100CA00090E080E0603711F485E090E001301105BC
:100CB00009F07FC12091630130916401820F931F7D
:100CC000909364018093630187E691E00E94A40100
:100CD0000E94F3020430110591F660E086E00E9464
:100CE0003A02409163016AE089E00E94D402409197
:100CF000610168E087E00E94D40261E086E00E9422
:100D00003A0220E0822E20E0922E1092660110928C
:100D1000650190E0A92E91E0B92ED12CC12CF501EE
:100D200031905F018C2D0E946802009709F48EC1FA
:100D3000BC01990F880B990B0E945E0B20E030E0FC
:100D400040EA50E40E94BD0B20E030E040E85AE366
:100D50000E94BD0B9B01AC0160E070E080EA90E472
:100D60000E94820D20E030E040E85FE30E94150D14
:100D700020E030E44CE156E40E94BD0B2B013C0125
:100D80001BA21AA21DA21CA21FA21EA28E010F5FEF
:100D90001F4F22E044E00E942908009709F426C171
:100DA000FC0101900020E9F73197AF01481B590B76
:100DB000BC01CE0182960E948F03B601CE018896B7
:100DC0000E94B0031A8219821C821B821E821D821D
:100DD00068A579A56115710531F04CA55DA5CE0119
:100DE00001960E948F0341E050E068E271E0CE017D
:100DF00001960E945003811104C0CE0101960E9409
:100E00000E03BE016E5D7F4FCE0101960E947C03F2
:100E10000E94FB02CE0101960E942003CE0188961B
:100E20000E942003CE0182960E94200362E370E0BC
:100E300080E090E00E94A202F2E720E030E048EC7F
:100E400053E43F1609F4E9C087E63812D4C020E025
:100E500030E046E154E4C301B2010E94F40D20E009
:100E600030E041EE54E418160CF4D7C060916501EF
:100E7000709166016E0D7F1D709366016093650130
:100E8000CE0101960E94B003B701CE0182960E9466
:100E9000B00319A618A61BA61AA61DA61CA646E0F6
:100EA00050E063E271E0CE0188960E948F03BE019C
:100EB0006E5D7F4FCE0188960E947C038C0148E0D6
:100EC00050E06AE271E00E945003811103C0C80142
:100ED0000E940E03BE016F5F7F4FC8010E947C031A
:100EE0000E94FB02CE0188960E942003CE018296CA
:100EF0000E942003CE0101960E9420038FEFC81AA2
:100F0000D80AE4E0CE16D10409F009CF609165015A
:100F100070916601CE0101960E94B0031BA21AA235
:100F20001DA21CA21FA21EA247E050E063E371E0D5
:100F3000CE0182960E948F03BE016F5F7F4FCE016C
:100F400082960E947C030E94FB02CE0182960E9440
:100F50002003CE0101960E942003809165019091AB
:100F600066010497A1F461E082E00E943A024CE13C
:100F700050E06BE371E087E691E00E9404010E947B
:100F8000F30260E074EE8BE094E50E94A20268EE4A
:100F900073E080E090E00E94A2028114910409F4C1
:100FA000B4CE0E946E01882309F4AFCE0E940000E7
:100FB000ACCE0230110531F453E0880F991F5A95D9
:100FC000E1F778CE20916101309162010330110583
:100FD00039F4820F931F909362018093610174CE64
:100FE00043E0880F991F4A95E1F7F3CFCE0182962F
:100FF0000E940E03E2CEE2E63E1219C020E030E08D
:101000004AEF55E4C301B2010E94F40D18160CF02A
:101010002DCF20E030E84BE356E4C301B2010E943B
:10102000570B87FF23CFEE24E394F12C1FCFF0E77B
:101030003F121CCF20E030E64AE657E4C301B2017C
:101040000E94F40D18160CF011CFEDCFF12CE12C0D
:101050000DCFEF920F931F93CF93DF93E80134E00E
:1010600047FD34E1042E000C550B57FF03C051958A
:1010700041955109E32E022F242FAE010E94100941
:10108000CE01DF91CF911F910F91EF9008958F9234
:101090009F92AF92BF92CF92DF92EF92FF92CF9347
:1010A000DF93EC01688179818A819B8161157105EB
:1010B0008105910521F464E279ED8BE597E02DE15E
:1010C00033EF41E050E00E949D0C49015A019B0121
:1010D000AC01A7EAB1E40E94BC0C6B017C01ACEE50
:1010E000B4EFA50194010E94CA0CC60ED71EE81EDB
:1010F000F91EF7FE06C081E0C81AD108E10880E8B1
:10110000F80AC882D982EA82FB82C701B6019F77BA
:10111000DF91CF91FF90EF90DF90CF90BF90AF9095
:101120009F908F9008958F929F92AF92BF92CF928F
:10113000DF92EF92FF92609104017091050180911E
:10114000060190910701611571058105910521F452
:1011500064E279ED8BE597E02DE133EF41E050E07B
:101160000E949D0C49015A019B01AC01A7EAB1E420
:101170000E94BC0C6B017C01ACEEB4EFA5019401A4
:101180000E94CA0CC60ED71EE81EF91EF7FE06C046
:1011900081E0C81AD108E10880E8F80AC092040189
:1011A000D0920501E0920601F0920701C701B60155
:1011B0009F77FF90EF90DF90CF90BF90AF909F9080
:1011C0008F90089560930401709305018093060148
:1011D000909307010895BB274A3031F4992322F4F4
:1011E000BDE2909581959F4F0C94F708BB27FB01BA
:1011F0005527AA27880F991FAA1FA41710F0A41B10
:1012000083955051B9F7A05DAA3308F0A95DA19369
:10121000009779F7B111B1931192CB010C94470B60
:10122000A9E0B0E0E6E1F9E00C94D50C6A01F22EF9
:10123000B02E102FFBE3AF2EA01608F41BE31F5FA8
:10124000012F27E0AE014F5F5F4F0E946F0ABC0184
:101250008981982F9970913009F43FC09BE2E1FC9D
:1012600004C09E2D9170E0FC3AC05E2D5071E82FB5
:10127000E87083FF46C084E0911101C083E0EF2D48
:10128000E81B8F1508F0E0E0D6018E2F20E25523F1
:1012900051F1992329F0D6019C93C60101966C0166
:1012A00096012D5F3F4FE2FE24C08EE4D6018C9361
:1012B00091E411969C93119712968C93D9018E2FDD
:1012C00090E281111BC0E20FF32FF11D10828EEF0F
:1012D0009FEF2996ECE00C94F10C9DE2C6CF90E2D2
:1012E000C4CF2D9381508111FCCFCE0ED11CE0E0F4
:1012F000D0CF8EE6D6018C9391E6DBCF9D938150C3
:10130000E0CF482F447082FF3DC084E0911101C0BE
:1013100083E08F1510F4EF2DE81BD6018E2F20E20D
:10132000552309F1992329F0D6019C93C601019612
:101330006C0196012D5F3F4FE2FE1BC089E4D60190
:101340008C938EE411968C93119786E412968C936D
:10135000D9018E2F90E2882309F4B5CF9D93815057
:10136000FACF2D9381508111FCCFCE0ED11CE0E03D
:10137000D9CF89E6D6018C938EE611968C9311977E
:1013800086E6E4CF9B0177FF02C030E020E0A1E0D9
:10139000B0E0911102C0B0E0A0E0F9013196AE0FCB
:1013A000BF1F8B2C912CBB2009F461C05401EFEFBF
:1013B000AE1ABE0AAA0DBB1DFA161B0619F014F0D0
:1013C0004F2D4A1B511188C0E3FC59C07601A42F50
:1013D000B0E2A1114FC0C40ED11C992309F45BC027
:1013E00040E0D6011196F60190836D01552309F472
:1013F00048C0012F060F9A81582F507184FF03C0F7
:10140000913309F4015010160CF047C0093008F070
:1014100008E0EEE2FE2E5B01A01AB108850191946E
:10142000819491082F3F320729F4D601FC92F601EE
:1014300031966F016217730794F1021713077CF559
:10144000DB01A21BB30BAA24A394B12CAC0EBD1ECE
:10145000AA0DBB1D11968C9121503109D601119610
:1014600028153905F4F0F60180836D01DBCFB12C2E
:10147000A12CA0CFF701B1937F01A150AACF911168
:10148000B0CFD601942F50E302C05D9391509111DB
:10149000FCCFC40ED11C40E0ACCF01E0BACF80E35A
:1014A000DBCF6217730731F4963388F4953311F468
:1014B000552369F0F6018083FD01842F90E28111AC
:1014C00008C0A40FB11D1C9290E080E002CF81E320
:1014D000F1CF91938150F3CF911183CF8ACF2830F0
:1014E00008F027E03327DA01990F311D87FD91605D
:1014F00000966105710539F432602E5F3D9330E34B
:101500002A95E1F708959F3F30F080387105610515
:1015100009F03C5F3C5F3D93913008F08068911D7D
:10152000DF93CF931F930F93FF92EF92192F987F22
:101530009695E92F96959695E90FFF27EE53FF4F65
:1015400099273327EE24FF24A701E701059008948B
:10155000079428F4360FE71EF81E491F511D660F29
:10156000771F881F991F0694A1F70590079428F408
:10157000E70EF81E491F561FC11D770F881F991FC0
:10158000661F0694A1F70590079428F4F80E491FEA
:10159000561FC71FD11D880F991F661F771F0694FE
:1015A000A1F70590079420F4490F561FC71FD81FB5
:1015B000990F661F771F881F0694A9F784911095CD
:1015C000177041F0D695C79557954795F794E794CE
:1015D0001A95C1F7E8E6F0E06894159015913591F9
:1015E0006591959105907FE27395E118F10A430B9F
:1015F000560BC90BD009C0F7E10CF11E431F561F53
:10160000C91FD01D7EF4703311F48A95E6CFE8949B
:10161000015030F0080F0AF40027021708F4202FB9
:101620002395022F7A3328F079E37D932A95E9F701
:1016300010C07D932A9589F60694979567953795FE
:1016400017951794E118F10A430B560BC90BD009F3
:1016500098F023957E9173957A3308F070E37C932C
:101660002013B8F77E9170617D9330F0839571E31C
:101670007D9370E32A95E1F71124EF90FF900F918D
:101680001F91CF91DF91992787FD90950895DC01F7
:10169000FC01672F71917723E1F7329704C07C91A9
:1016A0006D9370836291AE17BF07C8F308950E94CF
:1016B000990B08F481E00895E89409C097FB3EF483
:1016C00090958095709561957F4F8F4F9F4F99238F
:1016D000A9F0F92F96E9BB279395F695879577950D
:1016E0006795B795F111F8CFFAF4BB0F11F460FFCD
:1016F0001BC06F5F7F4F8F4F9F4F16C0882311F025
:1017000096E911C0772321F09EE8872F762F05C038
:10171000662371F096E8862F70E060E02AF09A95D3
:10172000660F771F881FDAF7880F9695879597F9C8
:101730000895990F0008550FAA0BE0E8FEEF161662
:101740001706E807F907C0F012161306E407F507B5
:1017500098F0621B730B840B950B39F40A2661F029
:10176000232B242B252B21F408950A2609F4A140CC
:10177000A6958FEF811D811D08950E94D00B0C94BA
:10178000410C0E94330C38F00E943A0C20F0952353
:1017900011F00C942A0C0C94300C11240C94750C40
:1017A0000E94520C70F3959FC1F3950F50E0551FA6
:1017B000629FF001729FBB27F00DB11D639FAA27A6
:1017C000F00DB11DAA1F649F6627B00DA11D661FF5
:1017D000829F2227B00DA11D621F739FB00DA11D16
:1017E000621F839FA00D611D221F749F3327A00DD0
:1017F000611D231F849F600D211D822F762F6A2F6C
:1018000011249F5750409AF0F1F088234AF0EE0FD0
:10181000FF1FBB1F661F771F881F91505040A9F7FD
:101820009E3F510580F00C942A0C0C94750C5F3F80
:10183000E4F3983ED4F3869577956795B795F79539
:10184000E7959F5FC1F7FE2B880F911D96958795B1
:1018500097F9089597F99F6780E870E060E0089530
:101860009FEF80EC089500240A94161617061806B8
:101870000906089500240A94121613061406050694
:101880000895092E0394000C11F4882352F0BB0F25
:1018900040F4BF2B11F460FF04C06F5F7F4F8F4F88
:1018A0009F4F089557FD9058440F551F59F05F3FC3
:1018B00071F04795880F97FB991F61F09F3F79F072
:1018C00087950895121613061406551FF2CF4695F4
:1018D000F1DF08C0161617061806991FF1CF869576
:1018E0007105610508940895E894BB27662777275A
:1018F000CB0197F90895A1E21A2EAA1BBB1BFD018B
:101900000DC0AA1FBB1FEE1FFF1FA217B307E407DE
:10191000F50720F0A21BB30BE40BF50B661F771F36
:10192000881F991F1A9469F7609570958095909516
:101930009B01AC01BD01CF010895052E97FB1EF45C
:1019400000940E94B40C57FD07D00E947B0C07FC4A
:1019500003D04EF40C94B40C5095409530952195DD
:101960003F4F4F4F5F4F08959095809570956195CB
:101970007F4F8F4F9F4F08950E94060DA59F900D9A
:10198000B49F900DA49F800D911D11240895B7FF61
:101990000C94BC0C0E94BC0C821B930B08952F92DC
:1019A0003F924F925F926F927F928F929F92AF92EF
:1019B000BF92CF92DF92EF92FF920F931F93CF933C
:1019C000DF93CDB7DEB7CA1BDB0B0FB6F894DEBFD3
:1019D0000FBECDBF09942A88398848885F846E84F9
:1019E0007D848C849B84AA84B984C884DF80EE8043
:1019F000FD800C811B81AA81B981CE0FD11D0FB64C
:101A0000F894DEBF0FBECDBFED010895A29FB001D7
:101A1000B39FC001A39F700D811D1124911DB29F22
:101A2000700D811D1124911D08955058BB27AA27C0
:101A30000E942D0D0C94410C0E94330C38F00E9432
:101A40003A0C20F039F49F3F19F426F40C94300C32
:101A50000EF4E095E7FB0C942A0CE92F0E94520C3F
:101A600058F3BA17620773078407950720F079F4D3
:101A7000A6F50C94740C0EF4E0950B2EBA2FA02D45
:101A80000B01B90190010C01CA01A0011124FF272B
:101A9000591B99F0593F50F4503E68F11A16F04026
:101AA000A22F232F342F4427585FF3CF4695379525
:101AB0002795A795F0405395C9F77EF41F16BA0BEA
:101AC000620B730B840BBAF09150A1F0FF0FBB1F98
:101AD000661F771F881FC2F70EC0BA0F621F731FE1
:101AE000841F48F4879577956795B795F7959E3F3E
:101AF00008F0B0CF9395880F08F09927EE0F9795CF
:101B0000879508950E94960D0C94410C0E943A0C02
:101B100058F00E94330C40F029F45F3F29F00C94F8
:101B20002A0C51110C94750C0C94300C0E94520C20
:101B300068F39923B1F3552391F3951B550BBB27FC
:101B4000AA2762177307840738F09F5F5F4F220F41
:101B5000331F441FAA1FA9F335D00E2E3AF0E0E838
:101B600032D091505040E695001CCAF72BD0FE2F82
:101B700029D0660F771F881FBB1F26173707480716
:101B8000AB07B0E809F0BB0B802DBF01FF279358CE
:101B90005F4F3AF09E3F510578F00C942A0C0C945C
:101BA000750C5F3FE4F3983ED4F38695779567957F
:101BB000B795F7959F5FC9F7880F911D9695879503
:101BC00097F90895E1E0660F771F881FBB1F621722
:101BD00073078407BA0720F0621B730B840BBA0BE0
:101BE000EE1F88F7E09508950E94990B08F48FEF97
:101BF0000895EE0FFF1F0590F491E02D09940F93C7
:101C00001F93CF93DF938230910510F482E090E030
:101C1000E091D602F091D70230E020E0B0E0A0E001
:101C2000309799F42115310509F44AC0281B390B66
:101C300024303105D8F58A819B816115710589F1C0
:101C4000FB0193838283FE0111C040815181028197
:101C5000138148175907E0F04817590799F410976E
:101C600061F012960C93129713961C933296CF0143
:101C7000DF91CF911F910F9108950093D602109399
:101C8000D702F4CF2115310551F04217530738F030
:101C9000A901DB019A01BD01DF01F801C1CFEF010C
:101CA000F9CF9093D7028093D602CDCFFE01E20FF9
:101CB000F31F819391932250310939832883D7CF21
:101CC0002091D4023091D502232B41F420910A01B6
:101CD00030910B013093D5022093D402209108015A
:101CE000309109012115310541F42DB73EB74091DE
:101CF0000C0150910D01241B350BE091D402F091A1
:101D0000D502E217F307A0F42E1B3F0B2817390763
:101D100078F0AC014E5F5F4F2417350748F04E0F47
:101D20005F1F5093D5024093D402819391939FCF2C
:101D3000F0E0E0E09CCFCF93DF930097E9F0FC0167
:101D4000329713821282A091D602B091D702ED0190
:101D500030E020E01097A1F420813181820F931FA1
:101D60002091D4023091D5022817390709F061C0BB
:101D7000F093D502E093D402DF91CF910895EA0168
:101D8000CE17DF07E8F54A815B819E0141155105B9
:101D9000B1F7E901FB83EA8349915991C40FD51F3B
:101DA000EC17FD0761F4808191810296840F951FE5
:101DB000E90199838883828193819B838A83F0E000
:101DC000E0E012968D919C9113970097B9F52D91B3
:101DD0003C911197CD010296820F931F2091D4025E
:101DE0003091D5022817390739F6309751F51092FE
:101DF000D7021092D602B093D502A093D402BCCFE2
:101E0000D383C28340815181840F951FC817D9079E
:101E100061F44E5F5F4F88819981480F591F51834C
:101E200040838A819B81938382832115310509F048
:101E3000B0CFF093D702E093D6029ECFFD01DC0134
:101E4000C0CF13821282D7CFB0E0A0E0EAE2FFE079
:101E50000C94D10C8C01009751F4CB010E94FF0D22
:101E60008C01C801CDB7DEB7E0E10C94ED0CFC01AC
:101E7000E60FF71F9C0122503109E217F30708F41F
:101E80009DC0D901CD91DC911197C617D70798F065
:101E9000C530D10530F3CE0104978617970708F3B4
:101EA000C61BD70B2297C193D1936D937C93CF011F
:101EB0000E949B0ED6CF5B01AC1ABD0A4C018C0E62
:101EC0009D1EA091D602B091D702512C412CF12C2D
:101ED000E12C109731F58091D4029091D5028815AC
:101EE000990509F05CC04616570608F058C0809165
:101EF000080190910901009741F48DB79EB7409178
:101F00000C0150910D01841B950BE817F90708F09F
:101F100055C0F093D502E093D402F9017183608338
:101F2000A0CF8D919C91119712966C901297139659
:101F30007C901397A815B90559F56C0142E0C40EC1
:101F4000D11CCA14DB0420F1AC014A195B09DA0187
:101F50001296159780F06282738251834083D90173
:101F60006D937C93E114F10471F0D7011396FC9307
:101F7000EE93129776CF22968C0F9D1FF9019183D5
:101F80008083F301EFCFF093D702E093D60269CFBD
:101F90004816590608F42C017D01D3019ACFCB01D4
:101FA0000E94FF0D7C01009749F0AE01B8010E942C
:101FB000E10FC8010E949B0E870153CF10E000E0A3
:101FC00050CFFB01DC0102C001900D924150504006
:101FD000D8F70895FB01DC0101900D920020E1F794
:061FE0000895F894FFCF04
:101FE60072676270010000000000D80280000000E5
:101FF6000000A40104013101F10162014001540114
:102006000D0A00416464203D20003B2073756D205D
:102016003D200053756D206973200057494E4E458B
:10202600522057494E4E455220434849434B454E50
:082036002044494E4E455200C2
:00000001FF
