:100000000C945D000C94E0050C94B9050C948500EB
:100010000C9485000C9485000C9485000C9485004C
:100020000C9485000C9485000C9485000C9485003C
:100030000C9485000C9485000C9485000C9485002C
:100040000C946F050C9485000C943D050C941705D9
:100050000C9485000C9485000C9485000C9485000C
:100060000C9485000C9485000000000024002700FB
:100070002A0000000000250028002B0004040404CE
:100080000404040402020202020203030303030342
:10009000010204081020408001020408102001021F
:1000A00004081020000000080002010000030407FB
:1000B0000000000000000000070611241FBECFEF63
:1000C000D8E0DEBFCDBF11E0A0E0B1E0E8EFF1E1A4
:1000D00002C005900D92A038B107D9F722E0A0E840
:1000E000B1E001C01D92A636B207E1F710E0CDE500
:1000F000D0E004C02197FE010E94F408CC35D1075E
:10010000C9F70E9450060C94FA080C940000AF92B4
:10011000BF92CF92DF92EF92FF920F931F93CF93F4
:10012000DF936C017B018B01040F151FEB015E0156
:10013000AE18BF08C017D10759F06991D601ED91EB
:10014000FC910190F081E02DC6010995892B79F78A
:10015000C501DF91CF911F910F91FF90EF90DF903C
:10016000CF90BF90AF900895FC01538D448D252F03
:1001700030E0842F90E0821B930B541710F0CF9641
:10018000089501970895FC01918D828D981761F073
:10019000A28DAE0FBF2FB11D5D968C91928D9F5F8A
:1001A0009F73928F90E008958FEF9FEF0895FC0169
:1001B000918D828D981731F0828DE80FF11D858D1C
:1001C00090E008958FEF9FEF0895FC01918D228DAF
:1001D000892F90E0805C9F4F821B91098F73992734
:1001E000089581EB91E00E94E50021E0892B09F45C
:1001F00020E0822F089580E090E0892B29F00E9472
:10020000F10081110C9400000895FC01A48DA80F49
:10021000B92FB11DA35ABF4F2C91848D90E0019648
:100220008F739927848FA689B7892C93A089B18968
:100230008C91837080648C93938D848D981306C009
:100240000288F389E02D80818F7D80830895EF926D
:10025000FF920F931F93CF93DF93EC0181E0888F80
:100260009B8D8C8D98131AC0E889F989808185FF50
:1002700015C09FB7F894EE89FF896083E889F989F2
:1002800080818370806480839FBF81E090E0DF91F4
:10029000CF911F910F91FF90EF900895F62E0B8D47
:1002A00010E00F5F1F4F0F731127E02E8C8D8E1102
:1002B0000CC00FB607FCFACFE889F989808185FF69
:1002C000F5CFCE010E940501F1CFEB8DEC0FFD2F94
:1002D000F11DE35AFF4FF0829FB7F8940B8FEA8924
:1002E000FB8980818062CFCFCF93DF93EC01888D33
:1002F0008823B9F0AA89BB89E889F9898C9185FDA1
:1003000003C0808186FD0DC00FB607FCF7CF8C912E
:1003100085FFF2CF808185FFEDCFCE010E940501E0
:10032000E9CFDF91CF91089590E0FC01EC55FF4FAC
:100330002491FC01E057FF4F3491FC01E458FF4F3A
:10034000E491EE23C9F0222339F0233001F1A8F41F
:10035000213019F1223029F1F0E0EE0FFF1FEE58A5
:10036000FF4FA591B4918FB7F894EC91611126C01D
:1003700030953E233C938FBF08952730A9F0283055
:10038000C9F0243049F7809180008F7D03C08091AF
:1003900080008F7780938000DFCF84B58F7784BD16
:1003A000DBCF84B58F7DFBCF8091B0008F778093BA
:1003B000B000D2CF8091B0008F7DF9CF3E2BDACF45
:1003C000CF93DF9390E0FC01E057FF4F24918458D6
:1003D0009F4FFC0184918823D1F090E0880F991FF2
:1003E000FC01E859FF4FA591B491FC01EE58FF4F75
:1003F000C591D49161110EC09FB7F8948C91E22FF2
:10040000E0958E238C932881E223E8839FBFDF91C0
:10041000CF9108958FB7F894EC91E22BEC938FBFB6
:10042000F6CF3FB7F8948091850190918601A09115
:100430008701B091880126B5A89B05C02F3F19F010
:100440000196A11DB11D3FBFBA2FA92F982F882754
:10045000BC01CD01620F711D811D911D42E0660F2F
:10046000771F881F991F4A95D1F708958F929F9201
:10047000AF92BF92CF92DF92EF92FF924B015C015D
:100480000E9411026B017C010E9411026C197D090E
:100490008E099F09683E734081059105A8F321E00C
:1004A000821A9108A108B10888EEC80E83E0D81E10
:1004B000E11CF11C81149104A104B10429F7FF90FF
:1004C000EF90DF90CF90BF90AF909F908F90089566
:1004D0000895089590E080E00895FC0130E020E068
:1004E00040E255E090812F303105B1F081819630A6
:1004F00039F14CF49530F1F02F5F3F4F31962031B8
:10050000310581F714C09730E9F09032A9F78530B2
:1005100079F080E28083F0CF862F963089F01CF44A
:10052000953041F00895973069F0903281F3089545
:1005300086E0F0CF803211F085E0ECCF87E0EACFA3
:100540005083DACF4083D8CFCF93DF93EC0160E0C4
:100550008E810E94940161E08E810E94940160E08E
:100560008E810E9494018BE891E00197F1F7DF9171
:10057000CF910895CF92DF92EF92FF920F931F9346
:10058000CF93DF936C017C0187E0E80EF11CD0E093
:10059000C0E0062F10E0B8010C2E02C075956795DB
:1005A0000A94E2F76170F70181917F010E94940142
:1005B0002196C430D10579F7C601DF91CF911F9103
:1005C0000F91FF90EF90DF90CF900C94A402CF9208
:1005D000DF92EF92FF920F931F93CF93DF93EC0183
:1005E000F62E642F8C810E9494018D818F3F19F02B
:1005F00060E00E9494010F2D10E08F8584FF25C0DC
:100600006E0187E0C80ED11CF12CE12CB8010E2C34
:1006100002C0759567950A94E2F76170F6018191C1
:100620006F010E949401FFEFEF1AFF0A88E0E816BD
:10063000F10461F7CE01DF91CF911F910F91FF90EF
:10064000EF90DF90CF900C94A402B80184E07595F0
:1006500067958A95E1F7CE010E94BA026F2DCE010F
:10066000DF91CF911F910F91FF90EF90DF90CF908E
:100670000C94BA0240E0682F8EE492E00C94E702FA
:10068000CF93DF93823029F490915D02986090932C
:100690005D02809361021092620280E480936302A3
:1006A00080E18093640280E58093650261E080913F
:1006B00052020E94E001809153028F3F19F061E0E5
:1006C0000E94E00161E0809154020E94E001CEE4CA
:1006D000D2E09E012E54324080915D0284FD0BC019
:1006E00084E090E021962817390744F461E08E8178
:1006F0000E94E001EECF88E090E0F4CF8BE39DE034
:100700000197F1F760E0809152020E94940160E04D
:10071000809154020E949401809153028F3F19F0FE
:1007200060E00E94940180915D0284FD39C063E025
:100730008EE492E00E94BA02CBE4D6E4CE010197A7
:10074000F1F763E08EE492E00E94BA022197F1F79C
:1007500063E08EE492E00E94BA0283E592E00197A2
:10076000F1F762E08EE492E00E94BA0280915D02AD
:1007700080620E943A0384E080935E028CE00E94D3
:100780003A0381E00E943A038BE39FE10197F1F77E
:1007900082E080935F0286E0DF91CF910C943A0370
:1007A00080620E943A038BE496E40197F1F780910E
:1007B0005D0280620E943A0383E592E00197F1F7BF
:1007C00080915D0280620E943A03D0CF90916102D5
:1007D000691710F06FEF690FE62FF0E0E25BFD4F55
:1007E0009489890F80680C943A0341E00E94E702E3
:1007F00081E090E00895EF92FF920F931F93CF93C3
:1008000000E011E0C8E08C2F80640E943A03780178
:1008100088E0E80EF11CF80161918F018EE492E00E
:100820000E94F5030E151F05B1F7C85FC03459F7D4
:10083000E0EAF1E0AFE8B1E080E281938D9391E0EE
:10084000E03BF907D1F7CF911F910F91FF90EF9007
:100850000895FB0101900020E9F73197AF01461B95
:10086000570BDC01ED91FC910280F381E02D09949E
:100870004F925F926F927F92AF92BF92CF92DF9230
:10088000EF92FF920F931F93CF93DF93CDB7DEB715
:10089000A1970FB6F894DEBF0FBECDBF7B01B0901D
:1008A000A101A09090018D3008F0A7C0E82FF0E0E2
:1008B000E45AFB4F0C94F4080505F304F304020515
:1008C000F004ED04ED04ED04ED04F0040205690408
:1008D000FF0480E291E09093A10111E090E2B9124F
:1008E00001C010E0803209F07FC004E0F8EEEF169E
:1008F000F3E0FF0658F403E084E6E816F10430F470
:1009000001E09AE0E916F10408F002E01092B0016B
:1009100010929F0180E1C82ED12CC01AD108F60197
:10092000E056FE4F6F017080108260E080E00E9410
:10093000E60360EA71E08EE492E00E942904F60189
:10094000708261E080E00E94E6036FE871E08EE46F
:1009500092E00E94290460E080E1801B0E94E6038F
:10096000970150E040E019A27E01F1E2EF0EF11C88
:100970009AE0492E512C612C712CCA01B901A301B6
:1009800092010E94C308605DF70162937F01211507
:1009900031054105510589F7309729F0BF018EE4F3
:1009A00092E00E942904B092A101A0929001812FAF
:1009B000A1960FB6F894DEBF0FBECDBFDF91CF91E9
:1009C0001F910F91FF90EF90DF90CF90BF90AF906D
:1009D0007F906F905F904F90089580E293E07BCF7F
:1009E00084E09EE278CF10E08093900181E0E0E225
:1009F000AE1201C080E0182B78CF90E06CCF80E27F
:100A000092E069CF10E083E0EFCF10E06ECF60E6B8
:100A100071E081EB91E00E94290467E671E081EBCF
:100A200091E00E94290481E080938A0108951F9239
:100A30000F920FB60F9211242F933F934F935F9312
:100A40006F937F938F939F93AF93BF93EF93FF9396
:100A500081EB91E00E940501FF91EF91BF91AF9171
:100A60009F918F917F916F915F914F913F912F91C6
:100A70000F900FBE0F901F9018951F920F920FB6F8
:100A80000F9211242F938F939F93EF93FF93E091F5
:100A9000C101F091C2018081E091C701F091C801CC
:100AA00082FD1BC090818091CA018F5F8F7320915E
:100AB000CB01821741F0E091CA01F0E0EF54FE4F04
:100AC000958F8093CA01FF91EF919F918F912F9104
:100AD0000F900FBE0F901F9018958081F4CF1F923A
:100AE0000F920FB60F9211242F933F938F939F93E2
:100AF000AF93BF938091810190918201A091830176
:100B0000B09184013091800123E0230F2D3758F5F7
:100B10000196A11DB11D20938001809381019093C6
:100B20008201A0938301B09384018091850190910B
:100B30008601A0918701B09188010196A11DB11D88
:100B40008093850190938601A0938701B0938801DB
:100B5000BF91AF919F918F913F912F910F900FBEB9
:100B60000F901F90189526E8230F0296A11DB11D26
:100B7000D2CF1F920F920FB60F9211242F933F9353
:100B80004F935F936F937F938F939F93AF93BF9395
:100B9000EF93FF93E0913A01F0913B010995FF91AA
:100BA000EF91BF91AF919F918F917F916F915F91E5
:100BB0004F913F912F910F900FBE0F901F9018955E
:100BC0001F920F920FB60F9211242F933F934F93C2
:100BD0005F936F937F938F939F93AF93BF93EF93A5
:100BE000FF93E0913801F09139010995FF91EF9160
:100BF000BF91AF919F918F917F916F915F914F9135
:100C00003F912F910F900FBE0F901F901895E1EB21
:100C1000F1E01382128288EE93E0A0E0B0E08483DA
:100C20009583A683B78386E491E09183808385ECE6
:100C300090E09587848784EC90E09787868780ECA6
:100C400090E0918B808B81EC90E0938B828B82EC97
:100C500090E0958B848B86EC90E0978B868B118E41
:100C6000128E138E148EEEE4F2E01382128288E567
:100C700091E09183808314828FEF858381E0868366
:100C800088E0878389E080878AE081878BE082879C
:100C90001386148615861686178681E00C94400309
:100CA000789484B5826084BD84B5816084BD85B547
:100CB000826085BD85B5816085BD80916E00816053
:100CC00080936E00109281008091810082608093F9
:100CD00081008091810081608093810080918000FB
:100CE0008160809380008091B10084608093B10026
:100CF0008091B00081608093B00080917A00846020
:100D000080937A0080917A00826080937A0080914B
:100D10007A00816080937A0080917A008068809365
:100D20007A001092C10060E082E00E94E00161E080
:100D300082E00E949401E091C101F091C20182E041
:100D40008083E091BD01F091BE011082E091BF016E
:100D5000F091C0018FEC80831092C901E091C50130
:100D6000F091C60186E08083E091C301F091C40157
:100D7000808180618083E091C301F091C401808112
:100D800088608083E091C301F091C4018081806814
:100D90008083E091C301F091C40180818F7D8083C5
:100DA00087E095E090933901809338018091690044
:100DB0008C7F826080936900E89A0E94FB0382E046
:100DC0000E9440032AE0C22ED12CE12CF12C33E00A
:100DD000832E912CA12CB12CC0E0D0E01BE003E0CD
:100DE00080918E01811149C060918C0170918D01BB
:100DF00093E0769567959A95E1F780918B01811143
:100E00003AC080913D010E94380480918B01882373
:100E100051F060E080E00E94E6036AE671E08EE453
:100E200092E00E9429046AEF70E080E090E00E9466
:100E3000360280918B0177247394872580938B01F0
:100E400080918A01882361F00E94FB0370923D012A
:100E500070928E0110928A0110928D0110928C0175
:100E6000209709F4BDCF0E94F100882309F4B8CF80
:100E70000E940000B5CF80E0C6CF7090890181E06C
:100E800065E0781260E28FE891E00E946D0282E0F6
:100E900065E0781260E280EA91E00E946D02809144
:100EA0003C01815080933C01811119C0711058C0E0
:100EB0000E943908A50194010E949108672B682BB4
:100EC000692B09F04BC082E0809389010E943908A8
:100ED000A70196010E9491086E5F60933C0180918A
:100EE0008A01882341F080913D01833010F4009302
:100EF0003D0110928A0160918C0170918D0183E017
:100F0000769567958A95E1F780913D010E943804B6
:100F1000882381F110928E0180918C0190918D0136
:100F200080359105A0F060E080E00E94E60366E76E
:100F300071E08EE492E00E94290461E087E00E9463
:100F4000940160EA76E881E090E00E94360264E66F
:100F500070E080E090E00E94360282CF81E0B4CF62
:100F6000109289010E943908A70196010E949108F8
:100F7000665FB3CF80913D01982F977F923021F427
:100F800081E080933D010AC09BEF980F9330C8F435
:100F9000909190019032F9F010933D0180918C0175
:100FA00090918D01019690938D0180938C0161E069
:100FB00080919201803209F060E086E00E94940105
:100FC000ABCF8B3040F090919001903211F487E0DC
:100FD000D8CF8C3009F38F5FD4CF8F929F92AF928E
:100FE000BF92CF92DF92EF92FF92CF93DF93EC010B
:100FF000688179818A819B816115710581059105DF
:1010000021F464E279ED8BE597E02DE133EF41E0E7
:1010100050E00E94910849015A019B01AC01A7EAE6
:10102000B1E40E94B0086B017C01ACEEB4EFA50105
:1010300094010E94BE08C60ED71EE81EF91EF7FED8
:1010400006C081E0C81AD108E10880E8F80AC88221
:10105000D982EA82FB82C701B6019F77DF91CF91E7
:10106000FF90EF90DF90CF90BF90AF909F908F90C8
:1010700008958F929F92AF92BF92CF92DF92EF929C
:10108000FF9260913E0170913F01809140019091EB
:101090004101611571058105910521F464E279ED45
:1010A0008BE597E02DE133EF41E050E00E9491089D
:1010B00049015A019B01AC01A7EAB1E40E94B008C2
:1010C0006B017C01ACEEB4EFA50194010E94BE0857
:1010D000C60ED71EE81EF91EF7FE06C081E0C81A2C
:1010E000D108E10880E8F80AC0923E01D0923F01A1
:1010F000E0924001F0924101C701B6019F77FF9055
:10110000EF90DF90CF90BF90AF909F908F90089519
:1011100060933E0170933F018093400190934101A1
:101120000895052E97FB1EF400940E94A80857FD11
:1011300007D00E94C30807FC03D04EF40C94A80803
:1011400050954095309521953F4F4F4F5F4F0895F3
:1011500090958095709561957F4F8F4F9F4F089523
:101160000E94E508A59F900DB49F900DA49F800D4F
:10117000911D11240895B7FF0C94B0080E94B00887
:10118000821B930B0895A1E21A2EAA1BBB1BFD0123
:101190000DC0AA1FBB1FEE1FFF1FA217B307E40756
:1011A000F50720F0A21BB30BE40BF50B661F771FAE
:1011B000881F991F1A9469F760957095809590958E
:1011C0009B01AC01BD01CF010895A29FB001B39F67
:1011D000C001A39F700D811D1124911DB29F700D40
:1011E000811D1124911D0895EE0FFF1F0590F491AC
:0811F000E02D0994F894FFCFF3
:1011F8000C0C000E1C0C1A130C0C000C0C0C0C0E16
:101208000C0C001E0D1F10001E0D1F10000000000A
:101218001F1F1F1F1F1F1F1F0303030303030303B6
:10122800181818181818181868026802010101001F
:1012380000000000000027018700B4007401E500E9
:10124800C300D70000000000F50387006A026902A6
:10125800707573686564000D0A00507265737320B9
:10126800537461727400596F7520576F6E210000B6
:00000001FF
